{
  "_format": "hh-sol-artifact-1",
  "contractName": "FundMe",
  "sourceName": "contracts/FundMe.sol",
  "abi": [
    {
      "inputs": [
        {
          "internalType": "contract AggregatorV3Interface",
          "name": "_dataFeed",
          "type": "address"
        }
      ],
      "stateMutability": "nonpayable",
      "type": "constructor"
    },
    {
      "inputs": [],
      "name": "EtherNotEnough",
      "type": "error"
    },
    {
      "inputs": [
        {
          "internalType": "address",
          "name": "owner",
          "type": "address"
        }
      ],
      "name": "OwnableInvalidOwner",
      "type": "error"
    },
    {
      "inputs": [
        {
          "internalType": "address",
          "name": "account",
          "type": "address"
        }
      ],
      "name": "OwnableUnauthorizedAccount",
      "type": "error"
    },
    {
      "anonymous": false,
      "inputs": [
        {
          "indexed": true,
          "internalType": "address",
          "name": "from",
          "type": "address"
        },
        {
          "indexed": true,
          "internalType": "address",
          "name": "beneficiary",
          "type": "address"
        },
        {
          "indexed": false,
          "internalType": "uint256",
          "name": "value",
          "type": "uint256"
        }
      ],
      "name": "Funde",
      "type": "event"
    },
    {
      "anonymous": false,
      "inputs": [
        {
          "indexed": true,
          "internalType": "address",
          "name": "previousOwner",
          "type": "address"
        },
        {
          "indexed": true,
          "internalType": "address",
          "name": "newOwner",
          "type": "address"
        }
      ],
      "name": "OwnershipTransferred",
      "type": "event"
    },
    {
      "inputs": [],
      "name": "MINIMAL_PRICE_USD",
      "outputs": [
        {
          "internalType": "uint256",
          "name": "",
          "type": "uint256"
        }
      ],
      "stateMutability": "view",
      "type": "function"
    },
    {
      "inputs": [],
      "name": "cheaperWithdraw",
      "outputs": [],
      "stateMutability": "nonpayable",
      "type": "function"
    },
    {
      "inputs": [],
      "name": "fund",
      "outputs": [],
      "stateMutability": "payable",
      "type": "function"
    },
    {
      "inputs": [
        {
          "internalType": "address",
          "name": "funderAddress",
          "type": "address"
        }
      ],
      "name": "getAmountFundedPerAddress",
      "outputs": [
        {
          "internalType": "uint256",
          "name": "",
          "type": "uint256"
        }
      ],
      "stateMutability": "view",
      "type": "function"
    },
    {
      "inputs": [
        {
          "internalType": "uint256",
          "name": "index",
          "type": "uint256"
        }
      ],
      "name": "getFunder",
      "outputs": [
        {
          "internalType": "address",
          "name": "",
          "type": "address"
        }
      ],
      "stateMutability": "view",
      "type": "function"
    },
    {
      "inputs": [],
      "name": "getPriceFeed",
      "outputs": [
        {
          "internalType": "contract AggregatorV3Interface",
          "name": "",
          "type": "address"
        }
      ],
      "stateMutability": "view",
      "type": "function"
    },
    {
      "inputs": [],
      "name": "getVersion",
      "outputs": [
        {
          "internalType": "uint256",
          "name": "",
          "type": "uint256"
        }
      ],
      "stateMutability": "view",
      "type": "function"
    },
    {
      "inputs": [],
      "name": "owner",
      "outputs": [
        {
          "internalType": "address",
          "name": "",
          "type": "address"
        }
      ],
      "stateMutability": "view",
      "type": "function"
    },
    {
      "inputs": [],
      "name": "renounceOwnership",
      "outputs": [],
      "stateMutability": "nonpayable",
      "type": "function"
    },
    {
      "inputs": [
        {
          "internalType": "address",
          "name": "newOwner",
          "type": "address"
        }
      ],
      "name": "transferOwnership",
      "outputs": [],
      "stateMutability": "nonpayable",
      "type": "function"
    },
    {
      "inputs": [],
      "name": "withdraw",
      "outputs": [],
      "stateMutability": "nonpayable",
      "type": "function"
    }
  ],
  "bytecode": "0x608060405234801561001057600080fd5b5060405161126a38038061126a8339818101604052810190610032919061039f565b61004061015b60201b60201c565b600073ffffffffffffffffffffffffffffffffffffffff168173ffffffffffffffffffffffffffffffffffffffff16036100b25760006040517f1e4fbdf70000000000000000000000000000000000000000000000000000000081526004016100a991906103db565b60405180910390fd5b6100c18161016360201b60201c565b5080600160006101000a81548173ffffffffffffffffffffffffffffffffffffffff021916908373ffffffffffffffffffffffffffffffffffffffff1602179055506101556040518060400160405280600e81526020017f6d73672073656e646572203d3e2000000000000000000000000000000000000081525061014a61015b60201b60201c565b61022760201b60201c565b506104e5565b600033905090565b60008060009054906101000a900473ffffffffffffffffffffffffffffffffffffffff169050816000806101000a81548173ffffffffffffffffffffffffffffffffffffffff021916908373ffffffffffffffffffffffffffffffffffffffff1602179055508173ffffffffffffffffffffffffffffffffffffffff168173ffffffffffffffffffffffffffffffffffffffff167f8be0079c531659141344cd1fd0a4f28419497f9722a3daafe3b4186f6b6457e060405160405180910390a35050565b6102c5828260405160240161023d929190610486565b6040516020818303038152906040527f319af333000000000000000000000000000000000000000000000000000000007bffffffffffffffffffffffffffffffffffffffffffffffffffffffff19166020820180517bffffffffffffffffffffffffffffffffffffffffffffffffffffffff83818316178352505050506102c960201b60201c565b5050565b6102ea816102e56102ed60201b6106241761030e60201b60201c565b60201c565b50565b60006a636f6e736f6c652e6c6f679050600080835160208501845afa505050565b61032060201b61086517819050919050565b6103286104b6565b565b600080fd5b600073ffffffffffffffffffffffffffffffffffffffff82169050919050565b600061035a8261032f565b9050919050565b600061036c8261034f565b9050919050565b61037c81610361565b811461038757600080fd5b50565b60008151905061039981610373565b92915050565b6000602082840312156103b5576103b461032a565b5b60006103c38482850161038a565b91505092915050565b6103d58161034f565b82525050565b60006020820190506103f060008301846103cc565b92915050565b600081519050919050565b600082825260208201905092915050565b60005b83811015610430578082015181840152602081019050610415565b60008484015250505050565b6000601f19601f8301169050919050565b6000610458826103f6565b6104628185610401565b9350610472818560208601610412565b61047b8161043c565b840191505092915050565b600060408201905081810360008301526104a0818561044d565b90506104af60208301846103cc565b9392505050565b7f4e487b7100000000000000000000000000000000000000000000000000000000600052605160045260246000fd5b610d76806104f46000396000f3fe60806040526004361061009c5760003560e01c80639e87a5cd116100645780639e87a5cd14610150578063b3a81d201461017b578063b60d4288146101b8578063be2693f0146101c2578063d7b4750c146101d9578063f2fde38b146102165761009c565b80630d8e6e2c146100a15780633ccfd60b146100cc578063715018a6146100e357806380c3980e146100fa5780638da5cb5b14610125575b600080fd5b3480156100ad57600080fd5b506100b661023f565b6040516100c39190610888565b60405180910390f35b3480156100d857600080fd5b506100e16102d7565b005b3480156100ef57600080fd5b506100f86102e1565b005b34801561010657600080fd5b5061010f6102f5565b60405161011c9190610888565b60405180910390f35b34801561013157600080fd5b5061013a610301565b60405161014791906108e4565b60405180910390f35b34801561015c57600080fd5b5061016561032a565b604051610172919061095e565b60405180910390f35b34801561018757600080fd5b506101a2600480360381019061019d91906109aa565b610354565b6040516101af9190610888565b60405180910390f35b6101c061039d565b005b3480156101ce57600080fd5b506101d761054c565b005b3480156101e557600080fd5b5061020060048036038101906101fb9190610a03565b610556565b60405161020d91906108e4565b60405180910390f35b34801561022257600080fd5b5061023d600480360381019061023891906109aa565b61059e565b005b6000600160009054906101000a900473ffffffffffffffffffffffffffffffffffffffff1673ffffffffffffffffffffffffffffffffffffffff166354fd4d506040518163ffffffff1660e01b8152600401602060405180830381865afa1580156102ae573d6000803e3d6000fd5b505050506040513d601f19601f820116820180604052508101906102d29190610a45565b905090565b6102df610645565b565b6102e9610645565b6102f360006106cc565b565b674563918244f4000081565b60008060009054906101000a900473ffffffffffffffffffffffffffffffffffffffff16905090565b6000600160009054906101000a900473ffffffffffffffffffffffffffffffffffffffff16905090565b6000600360008373ffffffffffffffffffffffffffffffffffffffff1673ffffffffffffffffffffffffffffffffffffffff168152602001908152602001600020549050919050565b674563918244f400006103d234600160009054906101000a900473ffffffffffffffffffffffffffffffffffffffff16610790565b101561040a576040517f401c98e300000000000000000000000000000000000000000000000000000000815260040160405180910390fd5b34600360006104176107cc565b73ffffffffffffffffffffffffffffffffffffffff1673ffffffffffffffffffffffffffffffffffffffff16815260200190815260200160002060008282546104609190610aa1565b9250508190555060026104716107cc565b9080600181540180825580915050600190039060005260206000200160009091909190916101000a81548173ffffffffffffffffffffffffffffffffffffffff021916908373ffffffffffffffffffffffffffffffffffffffff16021790555060006104db610301565b90508073ffffffffffffffffffffffffffffffffffffffff166104fc6107cc565b73ffffffffffffffffffffffffffffffffffffffff167f55f380092f753ebc119cfa0cdefd6cb705cb47a7255e7f278b3fec8ee68350b4346040516105419190610888565b60405180910390a350565b610554610645565b565b60006002828154811061056c5761056b610ad5565b5b9060005260206000200160009054906101000a900473ffffffffffffffffffffffffffffffffffffffff169050919050565b6105a6610645565b600073ffffffffffffffffffffffffffffffffffffffff168173ffffffffffffffffffffffffffffffffffffffff16036106185760006040517f1e4fbdf700000000000000000000000000000000000000000000000000000000815260040161060f91906108e4565b60405180910390fd5b610621816106cc565b50565b60006a636f6e736f6c652e6c6f679050600080835160208501845afa505050565b61064d6107cc565b73ffffffffffffffffffffffffffffffffffffffff1661066b610301565b73ffffffffffffffffffffffffffffffffffffffff16146106ca5761068e6107cc565b6040517f118cdaa70000000000000000000000000000000000000000000000000000000081526004016106c191906108e4565b60405180910390fd5b565b60008060009054906101000a900473ffffffffffffffffffffffffffffffffffffffff169050816000806101000a81548173ffffffffffffffffffffffffffffffffffffffff021916908373ffffffffffffffffffffffffffffffffffffffff1602179055508173ffffffffffffffffffffffffffffffffffffffff168173ffffffffffffffffffffffffffffffffffffffff167f8be0079c531659141344cd1fd0a4f28419497f9722a3daafe3b4186f6b6457e060405160405180910390a35050565b60008061079c836107d4565b90506000670de0b6b3a764000085836107b59190610b04565b6107bf9190610b75565b9050809250505092915050565b600033905090565b6000808273ffffffffffffffffffffffffffffffffffffffff1663feaf968c6040518163ffffffff1660e01b815260040160a060405180830381865afa158015610822573d6000803e3d6000fd5b505050506040513d601f19601f820116820180604052508101906108469190610c1e565b5050509150506402540be4008161085d9190610c99565b915050919050565b61086d610d11565b565b6000819050919050565b6108828161086f565b82525050565b600060208201905061089d6000830184610879565b92915050565b600073ffffffffffffffffffffffffffffffffffffffff82169050919050565b60006108ce826108a3565b9050919050565b6108de816108c3565b82525050565b60006020820190506108f960008301846108d5565b92915050565b6000819050919050565b600061092461091f61091a846108a3565b6108ff565b6108a3565b9050919050565b600061093682610909565b9050919050565b60006109488261092b565b9050919050565b6109588161093d565b82525050565b6000602082019050610973600083018461094f565b92915050565b600080fd5b610987816108c3565b811461099257600080fd5b50565b6000813590506109a48161097e565b92915050565b6000602082840312156109c0576109bf610979565b5b60006109ce84828501610995565b91505092915050565b6109e08161086f565b81146109eb57600080fd5b50565b6000813590506109fd816109d7565b92915050565b600060208284031215610a1957610a18610979565b5b6000610a27848285016109ee565b91505092915050565b600081519050610a3f816109d7565b92915050565b600060208284031215610a5b57610a5a610979565b5b6000610a6984828501610a30565b91505092915050565b7f4e487b7100000000000000000000000000000000000000000000000000000000600052601160045260246000fd5b6000610aac8261086f565b9150610ab78361086f565b9250828201905080821115610acf57610ace610a72565b5b92915050565b7f4e487b7100000000000000000000000000000000000000000000000000000000600052603260045260246000fd5b6000610b0f8261086f565b9150610b1a8361086f565b9250828202610b288161086f565b91508282048414831517610b3f57610b3e610a72565b5b5092915050565b7f4e487b7100000000000000000000000000000000000000000000000000000000600052601260045260246000fd5b6000610b808261086f565b9150610b8b8361086f565b925082610b9b57610b9a610b46565b5b828204905092915050565b600069ffffffffffffffffffff82169050919050565b610bc581610ba6565b8114610bd057600080fd5b50565b600081519050610be281610bbc565b92915050565b6000819050919050565b610bfb81610be8565b8114610c0657600080fd5b50565b600081519050610c1881610bf2565b92915050565b600080600080600060a08688031215610c3a57610c39610979565b5b6000610c4888828901610bd3565b9550506020610c5988828901610c09565b9450506040610c6a88828901610a30565b9350506060610c7b88828901610a30565b9250506080610c8c88828901610bd3565b9150509295509295909350565b6000610ca482610be8565b9150610caf83610be8565b9250828202610cbd81610be8565b91507f80000000000000000000000000000000000000000000000000000000000000008414600084121615610cf557610cf4610a72565b5b8282058414831517610d0a57610d09610a72565b5b5092915050565b7f4e487b7100000000000000000000000000000000000000000000000000000000600052605160045260246000fdfea2646970667358221220c6c309e054aa81a98d31a9f821161501dee9ce3425d7e80de8b88229d7c3a40c64736f6c634300081b0033",
  "linkReferences": {},
  "deployedLinkReferences": {}
}